{
  "_format": "hh-sol-artifact-1",
  "contractName": "MemePortal",
  "sourceName": "contracts/MemePortal.sol",
  "abi": [
    {
      "inputs": [],
      "stateMutability": "payable",
      "type": "constructor"
    },
    {
      "anonymous": false,
      "inputs": [
        {
          "indexed": true,
          "internalType": "address",
          "name": "from",
          "type": "address"
        },
        {
          "indexed": false,
          "internalType": "uint256",
          "name": "timestamp",
          "type": "uint256"
        },
        {
          "indexed": false,
          "internalType": "string",
          "name": "message",
          "type": "string"
        }
      ],
      "name": "NewMeme",
      "type": "event"
    },
    {
      "inputs": [],
      "name": "getAllMemes",
      "outputs": [
        {
          "components": [
            {
              "internalType": "address",
              "name": "memer",
              "type": "address"
            },
            {
              "internalType": "string",
              "name": "message",
              "type": "string"
            },
            {
              "internalType": "uint256",
              "name": "timestamp",
              "type": "uint256"
            }
          ],
          "internalType": "struct MemePortal.Meme[]",
          "name": "",
          "type": "tuple[]"
        }
      ],
      "stateMutability": "view",
      "type": "function"
    },
    {
      "inputs": [],
      "name": "getTotalMemes",
      "outputs": [
        {
          "internalType": "uint256",
          "name": "",
          "type": "uint256"
        }
      ],
      "stateMutability": "view",
      "type": "function"
    },
    {
      "inputs": [
        {
          "internalType": "address",
          "name": "",
          "type": "address"
        }
      ],
      "name": "lastMemedAt",
      "outputs": [
        {
          "internalType": "uint256",
          "name": "",
          "type": "uint256"
        }
      ],
      "stateMutability": "view",
      "type": "function"
    },
    {
      "inputs": [
        {
          "internalType": "string",
          "name": "_message",
          "type": "string"
        }
      ],
      "name": "meme",
      "outputs": [],
      "stateMutability": "nonpayable",
      "type": "function"
    }
  ],
  "bytecode": "0x60806040526200004f6040518060400160405280601581526020017f736d617274657374206f6620636f6e74726163747300000000000000000000008152506200005560201b6200068c1760201c565b620001e9565b620000f5816040516024016200006c919062000162565b6040516020818303038152906040527f41304fac000000000000000000000000000000000000000000000000000000007bffffffffffffffffffffffffffffffffffffffffffffffffffffffff19166020820180517bffffffffffffffffffffffffffffffffffffffffffffffffffffffff8381831617835250505050620000f860201b60201c565b50565b60008151905060006a636f6e736f6c652e6c6f679050602083016000808483855afa5050505050565b60006200012e8262000186565b6200013a818562000191565b93506200014c818560208601620001a2565b6200015781620001d8565b840191505092915050565b600060208201905081810360008301526200017e818462000121565b905092915050565b600081519050919050565b600082825260208201905092915050565b60005b83811015620001c2578082015181840152602081019050620001a5565b83811115620001d2576000848401525b50505050565b6000601f19601f8301169050919050565b61127e80620001f96000396000f3fe608060405234801561001057600080fd5b506004361061004c5760003560e01c8063565dcaa81461005157806386ef269f1461006f5780638be4753a1461009f578063e20645a6146100bb575b600080fd5b6100596100d9565b6040516100669190610cd7565b60405180910390f35b61008960048036038101906100849190610a45565b61022a565b6040516100969190610e20565b60405180910390f35b6100b960048036038101906100b49190610a6e565b610242565b005b6100c3610641565b6040516100d09190610e20565b60405180910390f35b60606002805480602002602001604051908101604052809291908181526020016000905b8282101561022157838290600052602060002090600302016040518060600160405290816000820160009054906101000a900473ffffffffffffffffffffffffffffffffffffffff1673ffffffffffffffffffffffffffffffffffffffff1673ffffffffffffffffffffffffffffffffffffffff16815260200160018201805461018690611006565b80601f01602080910402602001604051908101604052809291908181526020018280546101b290611006565b80156101ff5780601f106101d4576101008083540402835291602001916101ff565b820191906000526020600020905b8154815290600101906020018083116101e257829003601f168201915b50505050508152602001600282015481525050815260200190600101906100fd565b50505050905090565b60036020528060005260406000206000915090505481565b42601e600360003373ffffffffffffffffffffffffffffffffffffffff1673ffffffffffffffffffffffffffffffffffffffff1681526020019081526020016000205461028f9190610f32565b106102cf576040517f08c379a00000000000000000000000000000000000000000000000000000000081526004016102c690610de0565b60405180910390fd5b42600360003373ffffffffffffffffffffffffffffffffffffffff1673ffffffffffffffffffffffffffffffffffffffff1681526020019081526020016000208190555060016000808282546103259190610f32565b9250508190555061036c6040518060400160405280601681526020017f2573206861732073656e742061206d656d653a202573000000000000000000008152503383610725565b600260405180606001604052803373ffffffffffffffffffffffffffffffffffffffff16815260200183815260200142815250908060018154018082558091505060019003906000526020600020906003020160009091909190915060008201518160000160006101000a81548173ffffffffffffffffffffffffffffffffffffffff021916908373ffffffffffffffffffffffffffffffffffffffff160217905550602082015181600101908051906020019061042b929190610925565b5060408201518160020155505060006064600154424461044b9190610f32565b6104559190610f32565b61045f9190611069565b90506104a06040518060400160405280601681526020017f52616e646f6d20232067656e6572617465643a20256400000000000000000000815250826107c4565b806001819055506032600154116105ed576104f06040518060400160405280600781526020017f257320776f6e210000000000000000000000000000000000000000000000000081525033610860565b6000655af3107a400090504781111561053e576040517f08c379a000000000000000000000000000000000000000000000000000000000815260040161053590610dc0565b60405180910390fd5b60003373ffffffffffffffffffffffffffffffffffffffff168260405161056490610cc2565b60006040518083038185875af1925050503d80600081146105a1576040519150601f19603f3d011682016040523d82523d6000602084013e6105a6565b606091505b50509050806105ea576040517f08c379a00000000000000000000000000000000000000000000000000000000081526004016105e190610e00565b60405180910390fd5b50505b3373ffffffffffffffffffffffffffffffffffffffff167f5162a244fe825a87a827869cc716c9fb1e08eb37783d9799cca5be8b68dc386a4284604051610635929190610e3b565b60405180910390a25050565b60006106846040518060400160405280601781526020017f2564206d656d65732068617665206265656e2073656e740000000000000000008152506000546107c4565b600054905090565b610722816040516024016106a09190610cf9565b6040516020818303038152906040527f41304fac000000000000000000000000000000000000000000000000000000007bffffffffffffffffffffffffffffffffffffffffffffffffffffffff19166020820180517bffffffffffffffffffffffffffffffffffffffffffffffffffffffff83818316178352505050506108fc565b50565b6107bf83838360405160240161073d93929190610d4b565b6040516020818303038152906040527fe0e9ad4f000000000000000000000000000000000000000000000000000000007bffffffffffffffffffffffffffffffffffffffffffffffffffffffff19166020820180517bffffffffffffffffffffffffffffffffffffffffffffffffffffffff83818316178352505050506108fc565b505050565b61085c82826040516024016107da929190610d90565b6040516020818303038152906040527f9710a9d0000000000000000000000000000000000000000000000000000000007bffffffffffffffffffffffffffffffffffffffffffffffffffffffff19166020820180517bffffffffffffffffffffffffffffffffffffffffffffffffffffffff83818316178352505050506108fc565b5050565b6108f88282604051602401610876929190610d1b565b6040516020818303038152906040527f319af333000000000000000000000000000000000000000000000000000000007bffffffffffffffffffffffffffffffffffffffffffffffffffffffff19166020820180517bffffffffffffffffffffffffffffffffffffffffffffffffffffffff83818316178352505050506108fc565b5050565b60008151905060006a636f6e736f6c652e6c6f679050602083016000808483855afa5050505050565b82805461093190611006565b90600052602060002090601f016020900481019282610953576000855561099a565b82601f1061096c57805160ff191683800117855561099a565b8280016001018555821561099a579182015b8281111561099957825182559160200191906001019061097e565b5b5090506109a791906109ab565b5090565b5b808211156109c45760008160009055506001016109ac565b5090565b60006109db6109d684610e90565b610e6b565b9050828152602081018484840111156109f357600080fd5b6109fe848285610fc4565b509392505050565b600081359050610a1581611231565b92915050565b600082601f830112610a2c57600080fd5b8135610a3c8482602086016109c8565b91505092915050565b600060208284031215610a5757600080fd5b6000610a6584828501610a06565b91505092915050565b600060208284031215610a8057600080fd5b600082013567ffffffffffffffff811115610a9a57600080fd5b610aa684828501610a1b565b91505092915050565b6000610abb8383610c54565b905092915050565b610acc81610f88565b82525050565b610adb81610f88565b82525050565b6000610aec82610ed1565b610af68185610ef4565b935083602082028501610b0885610ec1565b8060005b85811015610b445784840389528151610b258582610aaf565b9450610b3083610ee7565b925060208a01995050600181019050610b0c565b50829750879550505050505092915050565b6000610b6182610edc565b610b6b8185610f10565b9350610b7b818560208601610fd3565b610b8481611156565b840191505092915050565b6000610b9a82610edc565b610ba48185610f21565b9350610bb4818560208601610fd3565b610bbd81611156565b840191505092915050565b6000610bd5603483610f21565b9150610be082611167565b604082019050919050565b6000610bf8600f83610f21565b9150610c03826111b6565b602082019050919050565b6000610c1b602783610f21565b9150610c26826111df565b604082019050919050565b6000610c3e600083610f05565b9150610c498261122e565b600082019050919050565b6000606083016000830151610c6c6000860182610ac3565b5060208301518482036020860152610c848282610b56565b9150506040830151610c996040860182610ca4565b508091505092915050565b610cad81610fba565b82525050565b610cbc81610fba565b82525050565b6000610ccd82610c31565b9150819050919050565b60006020820190508181036000830152610cf18184610ae1565b905092915050565b60006020820190508181036000830152610d138184610b8f565b905092915050565b60006040820190508181036000830152610d358185610b8f565b9050610d446020830184610ad2565b9392505050565b60006060820190508181036000830152610d658186610b8f565b9050610d746020830185610ad2565b8181036040830152610d868184610b8f565b9050949350505050565b60006040820190508181036000830152610daa8185610b8f565b9050610db96020830184610cb3565b9392505050565b60006020820190508181036000830152610dd981610bc8565b9050919050565b60006020820190508181036000830152610df981610beb565b9050919050565b60006020820190508181036000830152610e1981610c0e565b9050919050565b6000602082019050610e356000830184610cb3565b92915050565b6000604082019050610e506000830185610cb3565b8181036020830152610e628184610b8f565b90509392505050565b6000610e75610e86565b9050610e818282611038565b919050565b6000604051905090565b600067ffffffffffffffff821115610eab57610eaa611127565b5b610eb482611156565b9050602081019050919050565b6000819050602082019050919050565b600081519050919050565b600081519050919050565b6000602082019050919050565b600082825260208201905092915050565b600081905092915050565b600082825260208201905092915050565b600082825260208201905092915050565b6000610f3d82610fba565b9150610f4883610fba565b9250827fffffffffffffffffffffffffffffffffffffffffffffffffffffffffffffffff03821115610f7d57610f7c61109a565b5b828201905092915050565b6000610f9382610f9a565b9050919050565b600073ffffffffffffffffffffffffffffffffffffffff82169050919050565b6000819050919050565b82818337600083830152505050565b60005b83811015610ff1578082015181840152602081019050610fd6565b83811115611000576000848401525b50505050565b6000600282049050600182168061101e57607f821691505b60208210811415611032576110316110f8565b5b50919050565b61104182611156565b810181811067ffffffffffffffff821117156110605761105f611127565b5b80604052505050565b600061107482610fba565b915061107f83610fba565b92508261108f5761108e6110c9565b5b828206905092915050565b7f4e487b7100000000000000000000000000000000000000000000000000000000600052601160045260246000fd5b7f4e487b7100000000000000000000000000000000000000000000000000000000600052601260045260246000fd5b7f4e487b7100000000000000000000000000000000000000000000000000000000600052602260045260246000fd5b7f4e487b7100000000000000000000000000000000000000000000000000000000600052604160045260246000fd5b6000601f19601f8301169050919050565b7f547279696e6720746f207769746864726177206d6f7265206d6f6e657920746860008201527f616e2074686520636f6e7472616374206861732e000000000000000000000000602082015250565b7f57616974203330207365636f6e64730000000000000000000000000000000000600082015250565b7f4661696c656420746f207769746864726177206d6f6e65792066726f6d20636f60008201527f6e74726163742e00000000000000000000000000000000000000000000000000602082015250565b50565b61123a81610f88565b811461124557600080fd5b5056fea2646970667358221220c21b0a63a02cf6e38f4e502ea7be1433f8d8b7fbc9165308910ce19554c434d164736f6c63430008040033",
  "linkReferences": {},
  "deployedLinkReferences": {}
}